:100000000C9434000C943E000C943E000C943E0082
:100010000C943E000C943E000C943E000C943E0068
:100020000C943E000C943E000C943E000C943E0058
:100030000C943E000C943E000C944B000C943E003B
:100040000C943E000C943E000C943E000C943E0038
:100050000C943E000C943E000C943E000C943E0028
:100060000C943E000C943E0011241FBECFEFD8E04C
:10007000DEBFCDBF0E9443000C947B000C940000B7
:1000800080E283B908958FEF84B917B81AB80E9437
:100090006F007894FFCF1F920F920FB60F9211242A
:1000A0002F933F934F935F936F937F938F939F9380
:1000B000AF93BF93EF93FF930E944000FF91EF91A6
:1000C000BF91AF919F918F917F916F915F914F9170
:1000D0003F912F910F900FBE0F901F9018958DE4B8
:1000E00087BD82E084BD84E085BDEEE6F0E08081DE
:0A00F000826080830895F894FFCF2A
:00000001FF
