S01100004C6162355F636F64652E73726563D5
S11300000C9434000C9446000C9446000C94460066
S11300100C9446000C9446000C9446000C94460044
S11300200C9446000C9446000C9446000C94460034
S11300300C9446000C9446000C9453000C94460017
S11300400C9446000C9446000C9446000C94460014
S11300500C9446000C9446000C9446000C94460004
S11300600C9446000C94460011241FBECFEFD8E038
S1130070DEBFCDBF21E0A0E0B1E001C01D92A13000
S1130080B207E1F70E944B000C948C000C94000022
S113009080E283B908958FEF84B917B81AB80E9423
S11300A080007894FFCF1F920F920FB60F92112405
S11300B02F933F934F935F936F937F938F939F936C
S11300C0AF93BF93EF93FF93809100018F5F809371
S11300D000018A3020F00E94480010920001FF9134
S11300E0EF91BF91AF919F918F917F916F915F91AC
S11300F04F913F912F910F900FBE0F901F90189525
S11301008DE487BD82E084BD84E085BDEEE6F0E049
S10F01108081826080830895F894FFCF02
S9030000FC
