S01100004C6162345F636F64652E73726563D6
S11300000C9434000C943E000C943E000C943E007E
S11300100C943E000C943E000C943E000C943E0064
S11300200C943E000C943E000C943E000C943E0054
S11300300C943E000C943E000C943E000C943E0044
S11300400C943E000C943E000C943E000C943E0034
S11300500C943E000C943E000C943E000C943E0024
S11300600C943E000C943E0011241FBECFEFD8E048
S1130070DEBFCDBF0E9471000C949E000C94000062
S113008082E480937C0084E880937A0010927B0061
S113009010927E000895ECE7F0E09081907F8770E5
S11300A0892B8083EAE7F0E08081806480838091FB
S11300B07A0086FDFCCF80917800909179000895B4
S11300C09C01A8E8B3E10E948F00DC01CB01072E5C
S11300D07AE0B695A795979587957A95D1F7702D7F
S11300E00895CF93DF9300D000D0CDB7DEB70E9440
S11300F040001A8219821C821B8282E00E944B00FB
S11301009A83898389819A810E9460009C838B836E
S113011083EF91E00197F1F700C00000EECFA29FBA
S1130120B001B39FC001A39F700D811D1124911DC7
S1130130B29F700D811D1124911D0895F894FFCF75
S9030000FC
