:100000000C9434000C9449000C9449000C94490061
:100010000C9449000C9449000C9449000C9449003C
:100020000C9449000C9449000C9449000C9449002C
:100030000C9449000C9449000C9449000C9449001C
:100040000C9449000C9449000C9449000C9449000C
:100050000C9449000C9449000C9449000C944900FC
:100060000C9449000C94490011241FBECFEFD8E036
:10007000DEBFCDBF11E0A0E0B1E0E0EFF2E002C0F2
:1000800005900D92A431B107D9F70E947D000C9420
:1000900076010C94000080E480937C0084E88093D7
:1000A0007A0010927B0083E080937E000895ECE755
:1000B000F0E09081907F8F70892B8083EAE7F0E0F9
:1000C00080818064808380917A0086FDFCCF80915E
:1000D00078009091790008959C01A8E8B3E10E940E
:1000E0006701DC01CB01072E7AE0B695A7959795BD
:1000F00087957A95D1F7702D0895CF93DF93CDB77B
:10010000DEB7C05AD1090FB6F894DEBF0FBECDBF1F
:100110000E944B008CE090E00E94EB00F12C25C087
:100120000F2D10E080E00E9457000E946C00000F2D
:10013000111FE1E0F0E0EC0FFD1FE00FF11F9183D4
:10014000808381E00E9457000E946C00E1E5F0E0AE
:10015000EC0FFD1FE00FF11F9183808383EF91E08F
:100160000197F1F700C00000F39497E29F15C0F6E5
:1001700080E091E00E94FF00F12C20C00F2D10E0E4
:10018000000F111FE1E0F0E0EC0FFD1FE00FF11F89
:10019000808191810E940C018CE20E94F800E1E5CF
:1001A000F0E0EC0FFD1FE00FF11F808191810E94B4
:1001B0000C0181E191E00E94FF00F39427E22F15EA
:1001C000E8F68FEF94E32CE0815090402040E1F777
:1001D00000C00000A3CF9093C5008093C40010928C
:1001E000C00088E08093C10086E08093C20008953B
:1001F0009091C00095FFFCCF8093C6000895CF93E7
:10020000DF93EC0103C021960E94F80088818111E0
:10021000FACFDF91CF9108951F93CF93DF9300D052
:1002200000D000D0CDB7DEB7AC01892BA1F580E3BB
:100230000E94F80042C09A01ADECBCEC0E9467013C
:100240009695879596958795969587959C01220F0B
:10025000331F880F991F880F991F880F991F820FCE
:10026000931F9A01281B390BC901E1E0F0E0EC0F64
:10027000FD1FE10FF11D17FDFA95805D80839A0146
:100280000E946701AC01569547955695479556953E
:1002900047951F5F01C010E04115510561F60BC085
:1002A000E1E0F0E0EC0FFD1FE10FF11D17FDFA9505
:1002B00080810E94F80011509AF726960FB6F894A4
:1002C000DEBF0FBECDBFDF91CF911F910895A29FDA
:1002D000B001B39FC001A39F700D811D1124911D1A
:1002E000B29F700D811D1124911D0895F894FFCFC8
:1002F00041444330286D56292C41444331286D56E2
:04030000290D0A00B9
:00000001FF
